:0800000000000A128A11AE2F64
:100F5C0083010A128A11B22F83160313860183129E
:100F6C0003138601B92FF40110307402031CBF2F38
:100F7C00C02FC22FEE2FEE2F74088312031386009E
:100F8C000330F3000830F2007830F100F10BCC2F75
:100F9C00F20BCC2FF30BCC2F3030831203138600C3
:100FAC000330F3008A30F2005630F100F10BDC2FE5
:100FBC00F20BDC2FF30BDC2FE32F0130F100710867
:100FCC00F40710307402031CEC2FED2FC22FEE2F00
:100FDC000630F3001330F200B130F100F10BF42FB6
:100FEC00F20BF42FF30BF42FFB2FB92FB92F0A129E
:040FFC008A1101282D
:00000001FF
