:060000000A128A11122809
:10000800FE00030EF1000408F2000A08F300831250
:1000180003137F08F4000A168A15522F0A168A1548
:10002800812E2730B400F530B300B30B1928B40B78
:1000380019281E2883120313071A232824281E2888
:1000480025280130F90679182A282E288312031347
:10005800071531288312031307110A128A15F82F7E
:1000680031283128312831283128312831283128C0
:10007800312831283128312831280711071E452811
:1000880048280A128A11622B79154130B400EE30E3
:10009800B300B30B4D28B40B4D28640053288312CA
:1000A8000313071A5828592853285A282730B40008
:1000B800F530B300B30B5E28B40B5E2863288312B7
:1000C8000313071A6828692863286A282730B400A8
:1000D800F530B300B30B6E28B40B6E287328831267
:1000E8000313071A7828792873287A282730B40048
:1000F800F530B300B30B7E28B40B7E288328831217
:100108000313071A8828892883288A2840083F0467
:10011800031D8F289028A12831300A168A1108203B
:100128000A128A11313083120313B3003308C10055
:100138000A30BF000030C00031284108313A031DA1
:10014800A628A728BE285E300A168A1108200A1297
:100158008A112E300A168A1108200A128A112E30A6
:1001680083120313B3003308C1000A30BF00003004
:10017800C000312841082E3A031DC328C428DB28B3
:100188005E300A168A1108200A128A112C300A16C3
:100198008A1108200A128A112C3083120313B30023
:1001A8003308C1000A30BF000030C00031284108C0
:1001B8002C3A031DE028E128F8285E300A168A1137
:1001C80008200A128A1128300A168A1108200A12F1
:1001D8008A11283083120313B3003308C1000A3090
:1001E800BF000030C00031284108283A031DFD280F
:1001F800FE2815295E300A168A1108200A128A116B
:1002080029300A168A1108200A128A112930831205
:100218000313B3003308C1000A30BF000030C00028
:1002280031284108293A031D1A291B2931285E3033
:100238000A168A1108200A128A1131300A168A1100
:1002480008200A128A11313083120313B3003308CD
:10025800C1000A30BF000030C000312831283128E1
:10026800312831283128312841082E3A031D3D29EB
:100278003E2955295E300A168A1108200A128A1169
:100288002C300A168A1108200A128A112C3083127F
:100298000313B3003308C1000A30BF000030C000A8
:1002A800942941082C3A031D5A295B2972295E308A
:1002B8000A168A1108200A128A1128300A168A1189
:1002C80008200A128A11283083120313B300330856
:1002D800C1000A30BF000030C00094294108283A04
:1002E800031D772978298F295E300A168A1108207C
:1002F8000A128A1129300A168A1108200A128A114C
:10030800293083120313B3003308C1000A30BF0039
:100318000030C00094294108293A031D94299729DF
:100328000A128A15F82F5E300A168A1108200A1256
:100338008A1131300A168A1108200A128A113130BE
:1003480083120313B3003308C1000A30BF00003022
:10035800C0009429942994299429942994299429AA
:10036800881DB729BA290A168A11232C7915413014
:10037800B400EE30B300B30BBF29B40BBF2964003F
:10038800C52983120313071ACA29CB29C529CC29E1
:100398002730B400F530B300B30BD029B40BD02903
:1003A800D52983120313071ADA29DB29D529DC2971
:1003B8002730B400F530B300B30BE029B40BE029C3
:1003C800E52983120313071AEA29EB29E529EC2901
:1003D8002730B400F530B300B30BF029B40BF02983
:1003E800F52983120313071AFA29FB29F529FC2991
:1003F80040083F04031D012A022A132A41300A1625
:100408008A1108200A128A11413083120313B3009B
:100418003308C1000A30BF000030C00094294108E9
:10042800413A031D182A192A302A5E300A168A1101
:1004380008200A128A1142300A168A1108200A1264
:100448008A11423083120313B3003308C1000A3003
:10045800BF000030C00094294108423A031D352AE4
:10046800382A0A168A11D12B5E300A168A110820FA
:100478000A128A1143300A168A1108200A128A11B0
:10048800433083120313B3003308C1000A30BF009E
:100498000030C000942940083F04031D542A552AFF
:1004A800662A57300A168A1108200A128A1157300C
:1004B80083120313B3003308C1000A30BF000030B1
:1004C800C000082B4108573A031D6B2A6C2A832A5F
:1004D8005E300A168A1108200A128A1158300A1644
:1004E8008A1108200A128A11583083120313B300A4
:1004F8003308C1000A30BF000030C000082B410893
:10050800583A031D882A892AA02A5E300A168A11B9
:1005180008200A128A1159300A168A1108200A126C
:100528008A11593083120313B3003308C1000A300B
:10053800BF000030C000082B4108593A031DA52A06
:10054800A62ABD2A5E300A168A1108200A128A11C4
:100558005A300A168A1108200A128A115A30831250
:100568000313B3003308C1000A30BF000030C000D5
:10057800082B41085A3A031DC22AC32ADA2A5E30D8
:100588000A168A1108200A128A1139300A168A11A5
:1005980008200A128A11393083120313B300330872
:1005A800C1000A30BF000030C000082B4108393AAA
:1005B800031DDF2AE02AF72A5E300A168A1108206E
:1005C8000A128A1157300A168A1108200A128A114B
:1005D800573083120313B3003308C1000A30BF0039
:1005E8000030C000082B57300A168A1108200A125A
:1005F8008A11573083120313B3003308C1000A303D
:10060800BF000030C000082B0A128A15F82F082BEB
:10061800082B082B082B082B871E132B162B0A12C6
:100628008A11752C4130B400EE30B300B30B1A2B8D
:10063800B40B1A2B6400202B83120313071A252BE3
:10064800262B202B272B2730B400F530B300B30B13
:100658002B2BB40B2B2B302B83120313071A352BA0
:10066800362B302B372B2730B400F530B300B30BC3
:100678003B2BB40B3B2B402B83120313071A452B40
:10068800462B402B472B2730B400F530B300B30B73
:100698004B2BB40B4B2B502B83120313071A552BE0
:1006A800562B502BF914F9185A2B5E2B831203136F
:1006B8008714612B831203138710082B881D652B61
:1006C800662B4B2C79154130B400EE30B300B30BD8
:1006D8006B2BB40B6B2B6400712B83120313071A5B
:1006E800762B772B712B782B2730B400F530B3009D
:1006F800B30B7C2BB40B7C2B812B83120313071AAF
:10070800862B872B812B882B2730B400F530B3003C
:10071800B30B8C2BB40B8C2B912B83120313071A5E
:10072800962B972B912B982B2730B400F530B300DC
:10073800B30B9C2BB40B9C2BA12B83120313071A0E
:10074800A62BA72BA12BA82B40083F04031DAD2BDC
:10075800AE2BBF2B61300A168A1108200A128A11A3
:10076800613083120313B3003308C1000A30BF009D
:100778000030C000442C4108613A031DC42BC52B2E
:10078800DC2B5E300A168A1108200A128A116230A0
:100798000A168A1108200A128A116230831203137A
:1007A800B3003308C1000A30BF000030C000442C39
:1007B8004108623A031DE12BE22BF92B5E300A1641
:1007C8008A1108200A128A1163300A168A11082031
:1007D8000A128A11633083120313B3003308C1006D
:1007E8000A30BF000030C000442C4108633A031DA2
:1007F800FE2BFF2B162C5E300A168A1108200A12CF
:100808008A1132300A168A1108200A128A113230E7
:1008180083120313B3003308C1000A30BF0000304D
:10082800C000442C4108323A031D1B2C1C2C332CCD
:100838005E300A168A1108200A128A1161300A16D7
:100848008A1108200A128A11613083120313B30037
:100858003308C1000A30BF000030C000442C6130AA
:100868000A168A1108200A128A11613083120313AA
:10087800B3003308C1000A30BF000030C000442C68
:100888000A128A15F82F442C442C442C442C061E9A
:100898004E2C512C0A128A15C92879154130B400FA
:1008A800EE30B300B30B562CB40B562C64005C2C02
:1008B80083120313071A612C622C5C2C632C2730DB
:1008C800B400F530B300B30B672CB40B672C6C2C59
:1008D80083120313071A712C722C6C2C0A128A15B6
:1008E8000828081F782C792CF32C79154130B4008E
:1008F800EE30B300B30B7E2CB40B7E2C6400842C3A
:1009080083120313071A892C8A2C842C8B2C2730EA
:10091800B400F530B300B30B8F2CB40B8F2C942C90
:1009280083120313071A992C9A2C942C9B2C27308A
:10093800B400F530B300B30B9F2CB40B9F2CA42C40
:1009480083120313071AA92CAA2CA42CAB2C27302A
:10095800B400F530B300B30BAF2CB40BAF2CB42CF0
:1009680083120313071AB92CBA2CB42CBB2C4008D9
:100978003F04031DC02CC12CD22C30300A168A111A
:1009880008200A128A11303083120313B300330887
:10099800C1000A30BF000030C000D72C4108303AEF
:1009A800031DD72CDA2C0A128A15F82F5E300A1686
:1009B8008A1108200A128A1120300A168A11082082
:1009C8000A128A11203083120313B3003308C100BE
:1009D8000A30BF000030C000D72CD72CD72C861E79
:1009E800F62CF72C502D4130B400EE30B300B30B89
:1009F800FB2CB40BFB2C6400012D83120313071A84
:100A0800062D072D012D082D2730B400F530B30031
:100A1800B30B0C2DB40B0C2D112D83120313071AD5
:100A2800162D172D112D182D2730B400F530B300D1
:100A3800B30B1C2DB40B1C2D212D83120313071A85
:100A4800262D272D212D282D2730B400F530B30071
:100A5800B30B2C2DB40B2C2D312D83120313071A35
:100A6800362D372D312D382D40083F04031D3D2DDF
:100A78003E2DD72C5E300A168A1108200A128A11D8
:100A88005E3083120313B3003308C1000A30BF007D
:100A98000030C000D72CD72C871D532D542DD72CB0
:100AA8004130B400EE30B300B30B582DB40B582DC1
:100AB80064005E2D83120313071A632D642D5E2DC7
:100AC800652D2730B400F530B300B30B692DB40B96
:100AD800692D6E2D83120313071A732D742D6E2D35
:100AE800752D2730B400F530B300B30B792DB40B56
:100AF800792D7E2D83120313071A832D842D7E2DC5
:100B08000A128A1115282730B400F530B300B30B48
:100B18008B2DB40B8B2D902D83120313071A952D53
:100B2800962D902D972D2730B400F530B300B30BD8
:100B38009B2DB40B9B2DA02D83120313071AA52DF3
:100B4800A62DA02DA72D2730B400F530B300B30B88
:100B5800AB2DB40BAB2DB02D83120313071AB52D93
:100B6800B62DB02DB72D0A168A15A6260A128A1197
:100B7800C02D061EC02DC32D0A128A15F82F79150F
:100B88004130B400EE30B300B30BC82DB40BC82D00
:100B98006400CE2D83120313071AD32DD42DCE2D26
:100BA800D52D2730B400F530B300B30BD92DB40BD5
:100BB800D92DDE2D83120313071AE32DE42DDE2D24
:100BC800E52D2730B400F530B300B30BE92DB40B95
:100BD800E92DEE2D83120313071AF32DF42DEE2DB4
:100BE800F52D2730B400F530B300B30BF92DB40B55
:100BF800F92DFE2D83120313071A032E042EFE2D42
:100C0800052E0A168A15D9260A128A11C02DC02D5A
:100C1800C02DC02D831203138710791C142E172E94
:100C28000A128A1141280715071E1B2E1E2E0A12AA
:100C38008A11B42979154130B400EE30B300B30BF2
:100C4800232EB40B232E6400292E83120313071AB4
:100C58002E2E2F2E292E302E2730B400F530B3003B
:100C6800B30B342EB40B342E392E83120313071A08
:100C78003E2E3F2E392E402E2730B400F530B300DB
:100C8800B30B442EB40B442E492E83120313071AB8
:100C98004E2E4F2E492E502E2730B400F530B3007B
:100CA800B30B542EB40B542E592E83120313071A68
:100CB8005E2E5F2E592E602E40083F04031D652EC0
:100CC800662E772E31300A168A1108200A128A11E8
:100CD800313083120313B3003308C1000A30BF0058
:100CE8000030C000C02D4108313A031D7C2E7F2EF4
:100CF8000A128A1138295E300A168A1108200A1247
:100D08008A112E300A168A1108200A128A112E30EA
:100D180083120313B3003308C1000A30BF00003048
:100D2800C000C02D79154130B400EE30B300B30BCC
:100D38009B2EB40B9B2E6400A12E83120313071A5B
:100D4800A62EA72EA12EA82E2730B400F530B3006A
:100D5800B30BAC2EB40BAC2EB12E83120313071AAF
:100D6800B62EB72EB12EB82E2730B400F530B3000A
:100D7800B30BBC2EB40BBC2EC12E83120313071A5F
:100D8800C62EC72EC12EC82E2730B400F530B300AA
:100D9800B30BCC2EB40BCC2ED12E83120313071A0F
:100DA800D62ED72ED12ED82E40083F04031DDD2E77
:100DB800DE2EEF2E4D300A168A1108200A128A11EB
:100DC8004D3083120313B3003308C1000A30BF004B
:100DD8000030C000742F41084D3A031DF42EF52E43
:100DE8000C2F5E300A168A1108200A128A114E301A
:100DF8000A168A1108200A128A114E308312031328
:100E0800B3003308C1000A30BF000030C000742F9F
:100E180041084E3A031D112F122F292F5E300A1652
:100E28008A1108200A128A114F300A168A110820DE
:100E38000A128A114F3083120313B3003308C1001A
:100E48000A30BF000030C000742F41084F3A031D1C
:100E58002E2F2F2F462F5E300A168A1108200A12CD
:100E68008A1136300A168A1108200A128A11363079
:100E780083120313B3003308C1000A30BF000030E7
:100E8800C000742F4108363A031D4B2F4C2F632F97
:100E98005E300A168A1108200A128A114D300A1685
:100EA8008A1108200A128A114D3083120313B300E5
:100EB8003308C1000A30BF000030C000742F4D3025
:100EC8000A168A1108200A128A114D308312031358
:100ED800B3003308C1000A30BF000030C000742FCF
:100EE8000A128A15F82F742F742F742F742F861DE9
:100EF8007E2F812F0A168A11BC2D79154130B40036
:100F0800EE30B300B30B862FB40B862F64008C2F02
:100F180083120313071A912F922F8C2F932F2730A8
:100F2800B400F530B300B30B972FB40B972F9C2F59
:100F380083120313071AA12FA22F9C2F0A168A11B6
:100F4800DB2C831203132208210420040319AD2F7C
:100F5800AE2FEE2FA7010314A70DBF2F01300310EA
:100F6800A00DA10DA20DFF3E031DB32F0130A60059
:100F78002608A707BF2FA21FC22FC32FB22FC52F26
:100F8800C52F22082502031DCF2F21082402031D87
:100F9800CF2F20082302031CD22FD32FDE2F2008A7
:100FA800A3022108031C210FA4022208031C220A01
:100FB800A502DE2F01300310A20CA10CA00CFF3EED
:100FC800031DDF2F0130A702031DEB2FEC2FC52FC8
:100FD800EE2FEE2F2308A0002408A1002508A20068
:040FE800F52F0800D9
:101010002730B400F530B300B30B0C28B40B0C2808
:10102000112883120313071A1628172811281828C5
:101030002730B400F530B300B30B1C28B40B1C28C8
:10104000212883120313071A262827282128282855
:1010500040083F04031D2D282E283F2864300A161F
:101060008A1108200A128A15643083120313B30010
:101070003308C1000A30BF000030C000F82F41081B
:10108000643A031D442845285C285E300A168A11FC
:1010900008200A128A1565300A168A1108200A12D9
:1010A0008A15653083120313B3003308C1000A3078
:1010B000BF000030C000F82F4108653A031D6128C9
:1010C000622879285E300A168A1108200A128A15C9
:1010D00066300A168A1108200A128A1566308312B1
:1010E0000313B3003308C1000A30BF000030C00052
:1010F000F82F4108663A031D7E287F2896285E3027
:101100000A168A1108200A128A1533300A168A1123
:1011100008200A128A15333083120313B3003308F0
:10112000C1000A30BF000030C000F82F4108333A38
:10113000031D9B289C28B3285E300A168A110820BC
:101140000A128A1564300A168A1108200A128A15B2
:10115000643083120313B3003308C1000A30BF00A8
:101160000030C000F82F64300A168A1108200A12D5
:101170008A15643083120313B3003308C1000A30A8
:10118000BF000030C000F82FF82FF82FF82FF82FED
:10119000F82F061CCC28CD28B02979154130B40091
:1011A000EE30B300B30BD228B40BD2286400D82899
:1011B00083120313071ADD28DE28D828DF282730FA
:1011C000B400F530B300B30BE328B40BE328E828F0
:1011D00083120313071AED28EE28E828EF2827309A
:1011E000B400F530B300B30BF328B40BF328F828A0
:1011F00083120313071AFD28FE28F828FF2827303A
:10120000B400F530B300B30B0329B40B032908294C
:1012100083120313071A0D290E2908290F294008E4
:101220003F04031D14291529262967300A168A113F
:1012300008200A128A15673083120313B30033089B
:10124000C1000A30BF000030C000F82F4108673AE3
:10125000031D2B292C2943295E300A168A110820E8
:101260000A128A1568300A168A1108200A128A158D
:10127000683083120313B3003308C1000A30BF0083
:101280000030C000F82F4108683A031D4829492959
:1012900060295E300A168A1108200A128A15693000
:1012A0000A168A1108200A128A156930831203135C
:1012B000B3003308C1000A30BF000030C000F82F6F
:1012C0004108693A031D652966297D295E300A16A1
:1012D0008A1108200A128A1534300A168A11082049
:1012E0000A128A15343083120313B3003308C10085
:1012F0000A30BF000030C000F82F4108343A031D07
:10130000822983299A295E300A168A1108200A1236
:101310008A1567300A168A1108200A128A15673062
:1013200083120313B3003308C1000A30BF0000303A
:10133000C000F82F67300A168A1108200A128A1591
:10134000673083120313B3003308C1000A30BF00B3
:101350000030C000F82FF82FF82FF82FF82FF82FB3
:10136000081EB329B429972A79154130B400EE300C
:10137000B300B30BB929B40BB9296400BF29831298
:101380000313071AC429C529BF29C6292730B40069
:10139000F530B300B30BCA29B40BCA29CF29831285
:1013A0000313071AD429D529CF29D6292730B40009
:1013B000F530B300B30BDA29B40BDA29DF29831235
:1013C0000313071AE429E529DF29E6292730B400A9
:1013D000F530B300B30BEA29B40BEA29EF298312E5
:1013E0000313071AF429F529EF29F62940083F04C9
:1013F000031DFB29FC290D2A6A300A168A110820D0
:101400000A128A156A3083120313B3003308C1002D
:101410000A30BF000030C000F82F41086A3A031DAF
:10142000122A132A2A2A5E300A168A1108200A1262
:101430008A156B300A168A1108200A128A156B3039
:1014400083120313B3003308C1000A30BF00003019
:10145000C000F82F41086B3A031D2F2A302A472A73
:101460005E300A168A1108200A128A156C300A1694
:101470008A1108200A128A156C3083120313B300F4
:101480003308C1000A30BF000030C000F82F410807
:101490006C3A031D4C2A4D2A642A5E300A168A11C2
:1014A00008200A128A1535300A168A1108200A12F5
:1014B0008A15353083120313B3003308C1000A3094
:1014C000BF000030C000F82F4108353A031D692ADB
:1014D0006A2A812A5E300A168A1108200A128A15A1
:1014E0006A300A168A1108200A128A156A30831295
:1014F0000313B3003308C1000A30BF000030C0003E
:10150000F82F6A300A168A1108200A128A156A30E2
:1015100083120313B3003308C1000A30BF00003048
:10152000C000F82FF82FF82FF82FF82FF82F061DEE
:101530009A2A9B2A7E2B79154130B400EE30B300F5
:10154000B30BA02AB40BA02A6400A62A83120313AB
:10155000071AAB2AAC2AA62AAD2A2730B400F530E8
:10156000B300B30BB12AB40BB12AB62A831203130A
:10157000071ABB2ABC2AB62ABD2A2730B400F53088
:10158000B300B30BC12AB40BC12AC62A83120313BA
:10159000071ACB2ACC2AC62ACD2A2730B400F53028
:1015A000B300B30BD12AB40BD12AD62A831203136A
:1015B000071ADB2ADC2AD62ADD2A40083F04031D4D
:1015C000E22AE32AF42A6D300A168A1108200A1248
:1015D0008A156D3083120313B3003308C1000A303B
:1015E000BF000030C000F82F41086D3A031DF92AF2
:1015F000FA2A112B5E300A168A1108200A128A155F
:101600006E300A168A1108200A128A156E3083126B
:101610000313B3003308C1000A30BF000030C0001C
:10162000F82F41086E3A031D162B172B2E2B5E3018
:101630000A168A1108200A128A156F300A168A11B2
:1016400008200A128A156F3083120313B30033087F
:10165000C1000A30BF000030C000F82F41086F3AC7
:10166000031D332B342B4B2B5E300A168A110820B6
:101670000A128A1536300A168A1108200A128A15AB
:10168000363083120313B3003308C1000A30BF00A1
:101690000030C000F82F4108363A031D502B512B63
:1016A000682B5E300A168A1108200A128A156D30DE
:1016B0000A168A1108200A128A156D308312031344
:1016C000B3003308C1000A30BF000030C000F82F5B
:1016D0006D300A168A1108200A128A156D3083129D
:1016E0000313B3003308C1000A30BF000030C0004C
:1016F000F82FF82FF82FF82FF82FF82F861D812BB1
:10170000822B832C79154130B400EE30B300B30B3B
:10171000872BB40B872B64008D2B83120313071ABE
:10172000922B932B8D2B942B2730B400F530B300E4
:10173000B30B982BB40B982B9D2B83120313071A12
:10174000A22BA32B9D2BA42B2730B400F530B30084
:10175000B30BA82BB40BA82BAD2B83120313071AC2
:10176000B22BB32BAD2BB42B2730B400F530B30024
:10177000B30BB82BB40BB82BBD2B83120313071A72
:10178000C22BC32BBD2BC42B40083F04031DC92B08
:10179000CA2BDB2B70300A168A1108200A128A1510
:1017A000703083120313B3003308C1000A30BF0046
:1017B0000030C000F82F4108703A031DE02BE12BE8
:1017C000F82B5E300A168A1108200A128A15713029
:1017D0000A168A1108200A128A157130831203131F
:1017E000B3003308C1000A30BF000030C000F82F3A
:1017F0004108713A031DFD2BFE2B152C5E300A1695
:101800008A1108200A128A1572300A168A110820D5
:101810000A128A15723083120313B3003308C10011
:101820000A30BF000030C000F82F4108723A031D93
:101830001A2C1B2C322C5E300A168A1108200A1230
:101840008A1573300A168A1108200A128A15733015
:1018500083120313B3003308C1000A30BF00003005
:10186000C000F82F4108733A031D372C382C4F2C39
:101870005E300A168A1108200A128A1537300A16B5
:101880008A1108200A128A15373083120313B30015
:101890003308C1000A30BF000030C000F82F4108F3
:1018A000373A031D542C552C6C2C5E300A168A11C5
:1018B00008200A128A1570300A168A1108200A12A6
:1018C0008A15703083120313B3003308C1000A3045
:1018D000BF000030C000F82F70300A168A110820AF
:1018E0000A128A15703083120313B3003308C10043
:1018F0000A30BF000030C000F82FF82FF82FF82F63
:10190000F82FF82FF82F881E862C872C6A2D791532
:101910004130B400EE30B300B30B8C2CB40B8C2CE4
:101920006400922C83120313071A972C982C922C84
:10193000992C2730B400F530B300B30B9D2CB40BB9
:101940009D2CA22C83120313071AA72CA82CA22CBF
:10195000A92C2730B400F530B300B30BAD2CB40B79
:10196000AD2CB22C83120313071AB72CB82CB22C4F
:10197000B92C2730B400F530B300B30BBD2CB40B39
:10198000BD2CC22C83120313071AC72CC82CC22CDF
:10199000C92C40083F04031DCE2CCF2CE02C743002
:1019A0000A168A1108200A128A157430831203134A
:1019B000B3003308C1000A30BF000030C000F82F68
:1019C0004108743A031DE52CE62CFD2C5E300A1606
:1019D0008A1108200A128A1575300A168A11082001
:1019E0000A128A15753083120313B3003308C1003D
:1019F0000A30BF000030C000F82F4108753A031DBF
:101A0000022D032D1A2D5E300A168A1108200A12A3
:101A10008A1576300A168A1108200A128A1576303D
:101A200083120313B3003308C1000A30BF00003033
:101A3000C000F82F4108763A031D1F2D202D372DA9
:101A40005E300A168A1108200A128A1538300A16E2
:101A50008A1108200A128A15383083120313B30042
:101A60003308C1000A30BF000030C000F82F410821
:101A7000383A031D3C2D3D2D542D5E300A168A1137
:101A800008200A128A1574300A168A1108200A12D0
:101A90008A15743083120313B3003308C1000A306F
:101AA000BF000030C000F82F74300A168A110820D9
:101AB0000A128A15743083120313B3003308C1006D
:101AC0000A30BF000030C000F82FF82FF82FF82F91
:101AD000F82FF82F861C6D2D6E2D6F2E7915413045
:101AE000B400EE30B300B30B732DB40B732D640050
:101AF000792D83120313071A7E2D7F2D792D802DCA
:101B00002730B400F530B300B30B842DB40B842D13
:101B1000892D83120313071A8E2D8F2D892D902D59
:101B20002730B400F530B300B30B942DB40B942DD3
:101B3000992D83120313071A9E2D9F2D992DA02DE9
:101B40002730B400F530B300B30BA42DB40BA42D93
:101B5000A92D83120313071AAE2DAF2DA92DB02D79
:101B600040083F04031DB52DB62DC72D77300A164A
:101B70008A1108200A128A15773083120313B300E2
:101B80003308C1000A30BF000030C000F82F410800
:101B9000773A031DCC2DCD2DE42D5E300A168A1127
:101BA00008200A128A1578300A168A1108200A12AB
:101BB0008A15783083120313B3003308C1000A304A
:101BC000BF000030C000F82F4108783A031DE92D0E
:101BD000EA2D012E5E300A168A1108200A128A1593
:101BE00079300A168A1108200A128A157930831270
:101BF0000313B3003308C1000A30BF000030C00037
:101C0000F82F4108793A031D062E072E1E2E5E304E
:101C10000A168A1108200A128A157A300A168A11C1
:101C200008200A128A157A3083120313B30033088E
:101C3000C1000A30BF000030C000F82F41087A3AD6
:101C4000031D232E242E3B2E5E300A168A110820F7
:101C50000A128A1539300A168A1108200A128A15C2
:101C6000393083120313B3003308C1000A30BF00B8
:101C70000030C000F82F4108393A031D402E412E94
:101C8000582E5E300A168A1108200A128A157730FB
:101C90000A168A1108200A128A1577308312031354
:101CA000B3003308C1000A30BF000030C000F82F75
:101CB00077300A168A1108200A128A1577308312A3
:101CC0000313B3003308C1000A30BF000030C00066
:101CD000F82FF82FF82FF82FF82FF82FF82F871E4E
:101CE000722E732EBF2E4130B400EE30B300B30B12
:101CF000772EB40B772E64007D2E83120313071A00
:101D0000822E832E7D2E842E2730B400F530B30032
:101D1000B30B882EB40B882E8D2E83120313071A53
:101D2000922E932E8D2E942E2730B400F530B300D2
:101D3000B30B982EB40B982E9D2E83120313071A03
:101D4000A22EA32E9D2EA42E2730B400F530B30072
:101D5000B30BA82EB40BA82EAD2E83120313071AB3
:101D6000B22EB32EAD2EF914F918B72EBB2E831256
:101D700003138714BE2E831203138710F82F081F36
:101D8000C22EC32E3B2F79154130B400EE30B30084
:101D9000B30BC82EB40BC82E6400CE2E83120313CF
:101DA000071AD32ED42ECE2ED52E2730B400F530E0
:101DB000B300B30BD92EB40BD92EDE2E831203132E
:101DC000071AE32EE42EDE2EE52E2730B400F53080
:101DD000B300B30BE92EB40BE92EEE2E83120313DE
:101DE000071AF32EF42EEE2EF52E2730B400F53020
:101DF000B300B30BF92EB40BF92EFE2E831203138E
:101E0000071A032F042FFE2E052F40083F04031D41
:101E10000A2F0B2F1C2F30300A168A1108200A12A5
:101E20008A15303083120313B3003308C1000A301F
:101E3000BF000030C000F82F4108303A031D212FA9
:101E4000222FF82F5E300A168A1108200A128A15EE
:101E500020300A168A1108200A128A1520308312AF
:101E60000313B3003308C1000A30BF000030C000C4
:101E7000F82FF82FF82F861E3E2F3F2F982F413036
:101E8000B400EE30B300B30B432FB40B432F640008
:101E9000492F83120313071A4E2F4F2F492F502F0C
:101EA0002730B400F530B300B30B542FB40B542FCC
:101EB000592F83120313071A5E2F5F2F592F602F9C
:101EC0002730B400F530B300B30B642FB40B642F8C
:101ED000692F83120313071A6E2F6F2F692F702F2C
:101EE0002730B400F530B300B30B742FB40B742F4C
:101EF000792F83120313071A7E2F7F2F792F802FBC
:101F000040083F04031D852F862FF82F5E300A16E8
:101F10008A1108200A128A155E3083120313B30057
:101F20003308C1000A30BF000030C000F82FF82F7E
:101F3000871D9B2F9C2FF82F4130B400EE30B3004B
:101F4000B30BA02FB40BA02F6400A62F8312031392
:101F5000071AAB2FAC2FA62FAD2F2730B400F530CA
:101F6000B300B30BB12FB40BB12FB62F83120313F1
:101F7000071ABB2FBC2FB62FBD2F2730B400F5306A
:101F8000B300B30BC12FB40BC12FC62F83120313A1
:101F9000071ACB2FCC2FC62FCD2F2730B400F5300A
:101FA000B300B30BD12FB40BD12FD62F8312031351
:101FB000071ADB2FDC2FD62FDD2F0130F906791819
:101FC000E22FE62F831203130715E92F8312031361
:101FD0000711F82FF82FF82FF82FF82FF82FF82FD8
:101FE000F82FF82FF82FF82FF82FF82FF82FF82FB9
:101FF0007915FA2F0A168A11102A0A128A11122844
:1020100083120313A0000C280C1E0F2810280C2874
:1020200011282530990014280C1E17281828142868
:1020300019284B3099001C280C1E1F2820281C280A
:1020400021282008990024280C1E27282828242825
:102050002928203099002C280C1E2F2830282C28C5
:1020600031282030990034280C1E3728382834288D
:1020700039283F309900080000300A168A150C27CD
:102080000A168A1100300A168A150C270A168A11B8
:10209000831203132008B9002108BA00BB010130E4
:1020A0000A168A150C270A168A1101300A168A1593
:1020B0000C270A168A11831203132008BC0021087A
:1020C000BD00BE0100303B02031D6C2801303A0206
:1020D000031D6C2893303902031C6F287028772861
:1020E0009230B9000130BA000030BB008C280030BB
:1020F0003B02031D812801303A02031D812806306E
:1021000039020318842885288C280630B90001304C
:10211000BA000030BB008C2800303E02031D962818
:1021200001303D02031D962897303C02031C99287C
:102130009A28A1289630BC000130BD000030BE00B6
:10214000B72800303E02031DAB2801303D02031DBD
:10215000AB280A303C020318AE28AF28B7280A3053
:10216000BC000130BD000030BE00B728B728080011
:1021700047300A168A1108200A168A11473083123E
:102180000313B3003308C1000A30BF000030C000A1
:10219000C9280A128A15F82FC928C928C928C928A8
:1021A000081ED328D428B72979154130B400EE3061
:1021B000B300B30BD928B40BD9286400DF288312ED
:1021C0000313071AE428E528DF28E6282730B4009F
:1021D000F530B300B30BEA28B40BEA28EF288312DA
:1021E0000313071AF428F528EF28F6282730B4003F
:1021F000F530B300B30BFA28B40BFA28FF2883128A
:102200000313071A04290529FF2806292730B400DB
:10221000F530B300B30B0A29B40B0A290F29831236
:102220000313071A142915290F29162940083F04FA
:10223000031D1B291C292D294A300A168A11082042
:102240000A168A114A3083120313B3003308C100FF
:102250000A30BF000030C000C92841084A3A031DB7
:10226000322933294A295E300A168A1108200A16B3
:102270008A114B300A168A1108200A168A114B302F
:1022800083120313B3003308C1000A30BF000030CB
:10229000C000C92841084B3A031D4F29502967291E
:1022A0005E300A168A1108200A168A114C300A1666
:1022B0008A1108200A168A114C3083120313B300C6
:1022C0003308C1000A30BF000030C000C9284108EF
:1022D0004C3A031D6C296D2984295E300A168A1137
:1022E00008200A168A1135300A168A1108200A16A3
:1022F0008A11353083120313B3003308C1000A304A
:10230000BF000030C000C9284108353A031D8929A3
:102310008A29A1295E300A168A1108200A168A1114
:102320004A300A168A1108200A168A114A30831286
:102330000313B3003308C1000A30BF000030C000EF
:10234000C9284A300A168A1108200A168A114A300A
:1023500083120313B3003308C1000A30BF000030FA
:10236000C000C928C928C928C928C928C928061DE4
:10237000BC290A128A11962E0A128A117B2FFF306D
:10238000831603138500FF308600B83087000230C3
:10239000831203138700FF3083160313880089011B
:1023A0004030831203139F008430831603139F0071
:1023B00019309900831203139817181318168316EF
:1023C00003131813981618121815193099008C1643
:1023D0000C12033083120313B5008A30B400563058
:1023E000B300B30BF129B40BF129B50BF129F8298E
:1023F0008312031390121016901010149011B03025
:102400008E003C308F00831603130C1401087F39B3
:1024100081000A168A1593260A168A11F910102AC5
:102420007915F91C142A172A0A128A110E2E0A1677
:102430008A113C200A168A11831203138714202A5A
:102440000C1E232A242A202A252A25309900282AEE
:102450000C1E2B2A2C2A282A2D2A58309900302A83
:102460000C1E332A342A302A352A6430A800003062
:10247000A9000030AA003908AB003A08AC003B08BC
:10248000AD000A168A15A0270A168A1183120313B3
:102490002808303E99004C2A0C1E4F2A502A4C2AFC
:1024A000512A0A30A8000030A9000030AA003908DB
:1024B000A3003A08A4003B08A5006430A000003047
:1024C000A1000030A2000A128A11A5270A168A115B
:1024D000831203132008AB002108AC002208AD00D2
:1024E0000A168A15A0270A168A11831203132808D0
:1024F000303E99007B2A0C1E7E2A7F2A7B2A802A66
:102500003908A3003A08A4003B08A5006430A000E5
:102510000030A1000030A2000A128A11A5270A1675
:102520008A11831203132008B6002108B70022087D
:10253000B8000A30A0000030A1000030A200360828
:10254000A3003708A4003808A5000A128A11A5279D
:102550000A168A11831203132008303E9900B02A0C
:102560000C1EB32AB42AB02AB52A3F309900B82AE3
:102570000C1EBB2ABC2AB82ABD2A25309900C02AC5
:102580000C1EC32AC42AC02A0A168A11F32E410837
:10259000333A031DCC2ACD2AE42A5E300A168A116A
:1025A00008200A168A1144300A168A1108200A16D1
:1025B0008A11443083120313B3003308C1000A3078
:1025C000BF000030C000F52A44300A168A110820E6
:1025D0000A168A11443083120313B3003308C10072
:1025E0000A30BF000030C000F52A0A128A15F82F01
:1025F000F52AF52AF52AF52A061CFF2A022B0A16C7
:102600008A11D02879154130B400EE30B300B30BF5
:10261000072BB40B072B64000D2B83120313071A2F
:10262000122B132B0D2B142B2730B400F530B300D5
:10263000B30B182BB40B182B1D2B83120313071A83
:10264000222B232B1D2B242B2730B400F530B30075
:10265000B30B282BB40B282B2D2B83120313071A33
:10266000322B332B2D2B342B2730B400F530B30015
:10267000B30B382BB40B382B3D2B83120313071AE3
:10268000422B432B3D2B442B40083F04031D492B79
:102690004A2B5B2B47300A168A1108200A168A112A
:1026A000473083120313B3003308C1000A30BF0060
:1026B0000030C000F52A4108473A031D602B612B0A
:1026C000782B5E300A168A1108200A168A114830C3
:1026D0000A168A1108200A168A1148308312031339
:1026E000B3003308C1000A30BF000030C000F52A33
:1026F0004108483A031D7D2B7E2B952B5E300A1630
:102700008A1108200A168A1149300A168A110820EF
:102710000A168A11493083120313B3003308C1002B
:102720000A30BF000030C000F52A4108493A031DB5
:102730009A2B9B2BB22B5E300A168A1108200A16A0
:102740008A1134300A168A1108200A168A11343088
:1027500083120313B3003308C1000A30BF000030F6
:10276000C000F52A4108343A031DB72BBA2B0A16CC
:102770008A11B8285E300A168A1108200A168A11B2
:1027800047300A168A1108200A168A114730831228
:102790000313B3003308C1000A30BF000030C0008B
:1027A000F52A4108433A031DD62BD72BEE2B5E307A
:1027B0000A168A1108200A168A1132300A168A115E
:1027C00008200A168A11323083120313B30033082B
:1027D000C1000A30BF000030C0001C2C4108323A52
:1027E000031DF32BF42B0B2C5E300A168A110820E4
:1027F0000A168A1141300A168A1108200A168A110F
:10280000413083120313B3003308C1000A30BF0004
:102810000030C0001C2C41300A168A1108200A160C
:102820008A11413083120313B3003308C1000A3008
:10283000BF000030C0001C2C0A128A15F82F1C2C77
:102840001C2C1C2C1C2C061E262C292C0A168A112A
:10285000FC2A79154130B400EE30B300B30B2E2CB6
:10286000B40B2E2C6400342C83120313071A392C5A
:102870003A2C342C3B2C2730B400F530B300B30B8A
:102880003F2CB40B3F2C442C83120313071A492C02
:102890004A2C442C4B2C2730B400F530B300B30B3A
:1028A0004F2CB40B4F2C542C83120313071A592CA2
:1028B0005A2C542C5B2C2730B400F530B300B30BEA
:1028C0005F2CB40B5F2C642C83120313071A692C42
:1028D0006A2C642C6B2C40083F04031D702C712C57
:1028E000822C44300A168A1108200A168A114430B4
:1028F00083120313B3003308C1000A30BF00003055
:10290000C0001C2C4108443A031D872C882C9F2CA6
:102910005E300A168A1108200A168A1145300A16F6
:102920008A1108200A168A11453083120313B30056
:102930003308C1000A30BF000030C0001C2C410821
:10294000453A031DA42CA52CBC2C5E300A168A1116
:1029500008200A168A1146300A168A1108200A161B
:102960008A11463083120313B3003308C1000A30C2
:10297000BF000030C0001C2C4108463A031DC12C8A
:10298000C42C0A168A11C72A5E300A168A1108203A
:102990000A168A1133300A168A1108200A168A117B
:1029A000333083120313B3003308C1000A30BF0071
:1029B0000030C0001C2C2730B400F530B300B30B3E
:1029C000DF2CB40BDF2CE42C83120313071AE92C41
:1029D000EA2CE42CEB2C2730B400F530B300B30B19
:1029E000EF2CB40BEF2CF42C83120313071AF92CE1
:1029F000FA2CF42CFB2C40083F04031D002D012D64
:102A0000122D50300A168A1108200A168A115030E9
:102A100083120313B3003308C1000A30BF00003033
:102A2000C000B42D4108503A031D172D182D2F2D2D
:102A30005E300A168A1108200A168A1151300A16C9
:102A40008A1108200A168A11513083120313B30029
:102A50003308C1000A30BF000030C000B42D410867
:102A6000513A031D342D352D4C2D5E300A168A1136
:102A700008200A168A1152300A168A1108200A16EE
:102A80008A11523083120313B3003308C1000A3095
:102A9000BF000030C000B42D4108523A031D512D33
:102AA000522D692D5E300A168A1108200A168A11E5
:102AB00053300A168A1108200A168A1153308312DD
:102AC0000313B3003308C1000A30BF000030C00058
:102AD000B42D4108533A031D6E2D6F2D862D5E30A7
:102AE0000A168A1108200A168A1137300A168A1126
:102AF00008200A168A11373083120313B3003308F3
:102B0000C1000A30BF000030C000B42D4108373A80
:102B1000031D8B2D8C2DA32D5E300A168A110820E3
:102B20000A168A1150300A168A1108200A168A11CC
:102B3000503083120313B3003308C1000A30BF00C2
:102B40000030C000B42D50300A168A1108200A1631
:102B50008A11503083120313B3003308C1000A30C6
:102B6000BF000030C000B42D0A128A15F82FB42D12
:102B7000B42DB42DB42DB42D881EBF2DC22D0A1630
:102B80008A11A92E79154130B400EE30B300B30B91
:102B9000C72DB40BC72D6400CD2D83120313071A64
:102BA000D22DD32DCD2DD42D2730B400F530B30048
:102BB000B30BD82DB40BD82DDD2D83120313071AB8
:102BC000E22DE32DDD2D0A168A11E62D2730B40003
:102BD000F530B300B30BEA2DB40BEA2DEF2D8312C1
:102BE0000313071AF42DF52DEF2DF62D2730B40021
:102BF000F530B300B30BFA2DB40BFA2DFF2D831271
:102C00000313071A042E052EFF2D062E40083F043D
:102C1000031D0B2E0C2E1D2E54300A168A1108206F
:102C20000A168A11543083120313B3003308C1000B
:102C30000A30BF000030C000A22E4108543A031DE4
:102C4000222E232E3A2E5E300A168A1108200A16EA
:102C50008A1155300A168A1108200A168A11553031
:102C600083120313B3003308C1000A30BF000030E1
:102C7000C000A22E4108553A031D3F2E402E572E6C
:102C80005E300A168A1108200A168A1156300A1672
:102C90008A1108200A168A11563083120313B300D2
:102CA0003308C1000A30BF000030C000A22E410826
:102CB000563A031D5C2E5D2E742E5E300A168A1164
:102CC00008200A168A1138300A168A1108200A16B6
:102CD0008A11383083120313B3003308C1000A305D
:102CE000BF000030C000A22E4108383A031D792EE3
:102CF0007A2E912E5E300A168A1108200A168A1141
:102D000054300A168A1108200A168A115430831288
:102D10000313B3003308C1000A30BF000030C00005
:102D2000A22E54300A168A1108200A168A1154302D
:102D300083120313B3003308C1000A30BF00003010
:102D4000C000A22E0A128A15F82FA22EA22EA22EA1
:102D5000A22E861CAC2EAF2E0A128A11102B7915CA
:102D60004130B400EE30B300B30BB42EB40BB42E2C
:102D70006400BA2E83120313071ABF2EC02EBA2E78
:102D8000C12E2730B400F530B300B30BC52EB40B01
:102D9000C52ECA2E83120313071ACF2ED02ECA2E89
:102DA000D12E2730B400F530B300B30BD52EB40BC1
:102DB000D52EDA2E83120313071ADF2EE02EDA2E19
:102DC000E12E2730B400F530B300B30BE52EB40B81
:102DD000E52EEA2E83120313071AEF2EF02EEA2EA9
:102DE0000A128A114F2A59309900F62E0C1EF92E1C
:102DF000FA2EF62EFB2E6430A8000030A900003019
:102E0000AA003C08AB003D08AC003E08AD000A1625
:102E10008A15A0270A168A11831203132808303E48
:102E20009900122F0C1E152F162F122F172F0A3054
:102E3000A8000030A9000030AA003C08A3003D080B
:102E4000A4003E08A5006430A0000030A1000030BE
:102E5000A2000A128A11A5270A168A1183120313E7
:102E60002008AB002108AC002208AD000A168A1524
:102E7000A0270A168A11831203132808303E9900EE
:102E8000412F0C1E442F452F412F462F3C08A300F5
:102E90003D08A4003E08A5006430A0000030A10059
:102EA0000030A2000A128A11A5270A168A1183127D
:102EB00003132008B6002108B7002208B8000A3022
:102EC000A0000030A1000030A2003608A30037089F
:102ED000A4003808A5000A128A11A5270A168A112B
:102EE000831203132008303E9900762F0C1E792F91
:102EF0007A2F762F7B2F3F3099002730B400F530A2
:102F0000B300B30B812FB40B812F83120313871EE1
:102F10008A2F8B2FE62F4130B400EE30B300B30B75
:102F20008F2FB40B8F2F6400952F83120313071A72
:102F30009A2F9B2F952F9C2F2730B400F530B3008C
:102F4000B30BA02FB40BA02FA52F83120313071AC6
:102F5000AA2FAB2FA52FAC2F2730B400F530B3002C
:102F6000B30BB02FB40BB02FB52F83120313071A76
:102F7000BA2FBB2FB52FBC2F2730B400F530B300CC
:102F8000B30BC02FB40BC02FC52F83120313071A26
:102F9000CA2FCB2FC52FCC2F20300A168A1108201C
:102FA0000A168A1120300A168A1108200A168A1178
:102FB000F910F918DC2FE02F831203138714E32F85
:102FC0008312031387100A128A15F82F881DE92F20
:102FD000EC2F0A128A11BD2D79154130B400EE3064
:102FE000B300B30BF12FB40BF12F6400F72F831252
:102FF0000313071AFC2FFD2FF72F0A128A11872DB2
:103D0200F901F501F601F701F801B901BA01BB01A8
:103D1200BC01BD01BE01BF01C001C10183010A1680
:103D22008A11BF298B110B12831603138C130C13E8
:103D32000C128C128C110C110C148C108B120D1293
:103D42008D110D108B170B170800A72E831203136A
:103D52000C1EAC2EAD2EA72EAE2E25309900B12E04
:103D62000C1EB42EB52EB12EB62E4C309900B92EA3
:103D72000C1EBC2EBD2EB92EBE2E20309900C12E97
:103D82000C1EC42EC52EC12EC62E20309900C92E5F
:103D92000C1ECC2ECD2EC92ECE2E20309900D12E27
:103DA2000C1ED42ED52ED12ED62E3F3099000800CF
:103DB200DA2E831203130C1EDF2EE02EDA2EE12EF2
:103DC20025309900E42E0C1EE72EE82EE42EE92E73
:103DD20052309900EC2E0C1EEF2EF02EEC2EF12E0E
:103DE20020309900F42E0C1EF72EF82EF42EF92E08
:103DF20020309900FC2E0C1EFF2E002FFC2E012FCE
:103E020020309900042F0C1E072F082F042F092F92
:103E12003F309900080083120313A4002408A20073
:103E220002300310A20DFF3E031D122F0310220DBC
:103E3200A3002308A4001F08C7399F001F082404F9
:103E42009F001F141030A200A20B252F64008312C2
:103E520003131F152C2F1F192F2F302F2C2F312F0B
:103E62001E08A200A3012208A5002308A600250817
:103E7200A300A2012208A5002308A60083160313AB
:103E82001E08831203132507A50026080318260A15
:103E9200A6002608A101A1072508A001A007512F0D
:103EA20008000C1C552F562F952F40083F0403196C
:103EB2005B2F5C2F632F0130BF020030031CC00355
:103EC200C002632F0130F0007008F70777080A3A42
:103ED200031D6C2F6D2F8F2F0130F0007008F80733
:103EE200F7010130870678083C3A031D792F7A2FB3
:103EF2008F2F0130F0007008F607F80176083C3A7F
:103F0200031D842F852F8F2FF6010130F0007008DA
:103F1200F5078F2F8F2F8F2F8F2F8F2FB0308E007F
:103F22003C308F000C10952F7408FF0073088A0034
:103F320072088400710E8300FE0E7E0E09000030AE
:103F420083120313AF000030B0000030B1002A0822
:103F5200290428040319AE2FAF2FF82FB20103143E
:103F6200B20DC02F01300310A80DA90DAA0DFF3EFE
:103F7200031DB42F0130AE002E08B207C02FAA1FB6
:103F8200C32FC42FB32FC62FC62F01300310AF0D7E
:103F9200B00DB10DFF3E031DC72F2A082D02031DD0
:103FA200D82F29082C02031DD82F28082B02031C06
:103FB200DB2FDC2FE82F2808AB022908031C290F6E
:103FC200AC022A08031C2A0AAD022F14E82F013082
:103FD2000310AA0CA90CA80CFF3E031DE92F013007
:103FE200B202031DF52FF62FC62FF82FF82F2F0838
:0E3FF200A8003008A9003108AA00FF2F08001F
:00000001FF
