:1000000000000A128A111228FE00030EF8000408EC
:10001000F9000A08FA00831203137F08FB000A1292
:100020008A15842D0A128A15DB2B64008001840A4C
:100030000406031900340406162800300A128A1533
:10004000A0240A128A1100300A128A15A0240A126A
:100050008A11831203132108ED01ED072008EC013A
:10006000EC0701300A128A15A0240A128A11013005
:100070000A128A15A0240A128A1183120313210876
:10008000EF01EF072008EE01EE0701306D0293301B
:1000900003196C02031C4D284E2853289230EC00A3
:1000A0000130ED00612801306D02063003196C0249
:1000B00003185B285C2861280630EC000130ED0055
:1000C000612801306F02973003196E02031C692802
:1000D0006A286F289630EE000130EF007E2801304C
:1000E0006F020A3003196E020318772878287E28D9
:1000F0000A30EE000130EF007E287E2808008530AF
:10010000A800A80B8128013083120313B407031839
:10011000B50A0030B5078C286C09A8006D09A90044
:10012000A80A0319A90A2808383EAA0029080318B2
:10013000013E013EAB00AA09AB09AA0A0319AB0AAA
:100140002A08333EAC002B080318013E003EAD00E8
:1001500035082D02031DAE2834082C020318B128DF
:10016000B2287F2888160630A800A80BB52864009E
:100170008312031308120130B6000030B700CD28F7
:100180008530A800A80BC228013083120313B607DC
:100190000318B70A0030B707CD286C09A8006D090D
:1001A000A900A80A0319A90A2808383EAA002908A4
:1001B0000318013E013EAB00AA09AB09AA0A0319C4
:1001C000AB0A2A08333EAC002B080318013E003E60
:1001D000AD0037082D02031DEF2836082C02031846
:1001E000F228F328C02888120630A800A80BF628A9
:1001F00064000A128A11322A831203136E089C3E8D
:10020000A0006F080318013EFE3EA1006C09A80083
:100210006D09A900A80A0319A90A2808383EA200F6
:1002200029080318013E013EA3000A128A1534254D
:100230000A128A11831203132108EB01EB0720082D
:10024000EA01EA07B801B901AD2908160130BA0080
:100250000030BB0038298530A800A80B2D290130BB
:1002600083120313BA070318BB0A0030BB073829EF
:100270006C09A8006D09A900A80A0319A90A280891
:10028000383EAA0029080318013E013EAB00AA0926
:10029000AB09AA0A0319AB0A2A08333EAC002B08A3
:1002A0000318013E003EAD003B082D02031D5A29F4
:1002B0003A082C0203185D295E292B29881606307E
:1002C000A800A80B612964008312031308120130EF
:1002D000BC000030BD0079298530A800A80B6E292C
:1002E000013083120313BC070318BD0A0030BD0799
:1002F00079296C09A8006D09A900A80A0319A90A9F
:100300002808383EAA0029080318013E013EAB0028
:10031000AA09AB09AA0A0319AB0A2A08333EAC00A2
:100320002B080318013E003EAD003D082D02031DC1
:100330009B293C082C0203189E299F296C298812AE
:100340000630A800A80BA229640001308312031311
:10035000B8070318B90A0030B9076B083902031D42
:10036000B3296A083802031CB629B729252988173A
:100370000130BE000030BF000A128A11CC2985303E
:10038000A800A80BC129013083120313BE0703186C
:10039000BF0A0030BF07CC296E089C3EA8006F083A
:1003A0000318013EFE3EA900A809A909A80A0319DD
:1003B000A90A2808333EAA0029080318013E003E76
:1003C000AB003F082B02031DE7293E082A02031851
:1003D000EA29EB29BF2908170630A800A80BEE2947
:1003E00064008312031388130130C0000030C10081
:1003F000062A8530A800A80BFB29013083120313BD
:10040000C0070318C10A0030C107062A6E089C3EC7
:10041000A8006F080318013EFE3EA900A809A9091B
:10042000A80A0319A90A2808333EAA0029080318B4
:10043000013E003EAB0041082B02031D212A40086B
:100440002A020318242A252AF92908130630A800AD
:10045000A80B282A64000A128A111D200A128A1188
:10046000322A322A0130831203136D023830031905
:100470006C0203183C2A3D2A372B01306F0265308D
:1004800003196E020318452A482A0A128A15222FD8
:10049000372B372B372B88160130C2000030C300B2
:1004A0005E2A8530A800A80B532A0130831203135B
:1004B000C2070318C30A0030C3075E2A6C08A03EB7
:1004C000A8006D080318013EFE3EA900A809A9096D
:1004D000A80A0319A90A2808333EAA002908031804
:1004E000013E003EAB0043082B02031D792A42085F
:1004F0002A0203187C2A7D2A512A08160630A800F1
:10050000A80B802A64008312031388120130C400F0
:100510000030C500982A8530A800A80B8D2A01302C
:1005200083120313C4070318C50A0030C507982AAD
:100530006C08A03EA8006D080318013EFE3EA9000D
:10054000A809A909A80A0319A90A2808333EAA007C
:1005500029080318013E003EAB0045082B02031D8D
:10056000B32A44082A020318B62AB72A8B2A08128B
:100570000630A800A80BBA2A640083120313881758
:100580000130C6000030C700D22A8530A800A80B71
:10059000C72A013083120313C6070318C70A0030A5
:1005A000C707D22A6E089C3EA8006F080318013EB8
:1005B000FE3EA900A809A909A80A0319A90A280842
:1005C000333EAA0029080318013E003EAB0047084D
:1005D0002B02031DED2A46082A020318F02AF12AED
:1005E000C52A08170630A800A80BF42A6400831255
:1005F000031388130130C8000030C9000C2B85306C
:10060000A800A80B012B013083120313C80703189D
:10061000C90A0030C9070C2B6E089C3EA8006F0861
:100620000318013EFE3EA900A809A909A80A03195A
:10063000A90A2808333EAA0029080318013E003EF3
:10064000AB0049082B02031D272B48082A02031878
:100650002A2B2B2BFF2A08130630A800A80B2E2BC1
:1006600064000A128A111D200A128A11372B0130E8
:10067000831203136D02613003196C02031C412BBA
:10068000422B562C01306F02653003196E0203189D
:100690004A2B4B2B4B2A562C562C562C0816013025
:1006A000CA000030CB00612B8530A800A80B562B68
:1006B000013083120313CA070318CB0A0030CB079B
:1006C000612B6C09A8006D09A900A80A0319A90AE1
:1006D0002808383EAA0029080318013E013EAB0055
:1006E000AA09AB09AA0A0319AB0A2A08333EAC00CF
:1006F0002B080318013E003EAD004B082D02031DE0
:10070000832B4A082C020318862B872B542B881620
:100710000630A800A80B8A2B64008312031308126A
:100720000130CC000030CD00A22B8530A800A80BF2
:10073000972B013083120313CC070318CD0A003026
:10074000CD07A22B6C09A8006D09A900A80A0319FE
:10075000A90A2808383EAA0029080318013E013ECC
:10076000AB00AA09AB09AA0A0319AB0A2A08333E4F
:10077000AC002B080318013E003EAD004D082D02D1
:10078000031DC42B4C082C020318C72BC82B952B18
:1007900088120630A800A80BCB2B64008312031329
:1007A00008170130CE000030CF00E32B8530A800C1
:1007B000A80BD82B013083120313CE070318CF0ADE
:1007C0000030CF07E32B6E09A8006F09A900A80A23
:1007D0000319A90A28083C3EAA0029080318013E6B
:1007E000013EAB00AA09AB09AA0A0319AB0A2A0801
:1007F000333EAC002B080318013E003EAD004F080D
:100800002D02031D052C4E082C020318082C092C60
:10081000D62B88170630A800A80B0C2C6400831276
:10082000031308130130D0000030D100242C853090
:10083000A800A80B192C013083120313D00703184A
:10084000D10A0030D107242C6E09A8006F09A90035
:10085000A80A0319A90A28083C3EAA002908031877
:10086000013E013EAB00AA09AB09AA0A0319AB0A73
:100870002A08333EAC002B080318013E003EAD00B1
:1008800051082D02031D462C50082C020318492C38
:100890004A2C172C88130630A800A80B4D2C640096
:1008A0000A128A111D200A128A11562C0130831255
:1008B00003136D02383003196C020318602C612C8D
:1008C000672D01306F023C3003196E02031C692C46
:1008D0006A2C4E2B672D672D672D88160130D200AC
:1008E0000030D300802C8530A800A80B752C013077
:1008F00083120313D2070318D30A0030D307802CC6
:100900006C08A03EA8006D080318013EFE3EA90039
:10091000A809A909A80A0319A90A2808333EAA00A8
:1009200029080318013E003EAB0053082B02031DAB
:100930009B2C52082A0203189E2C9F2C732C0816FD
:100940000630A800A80BA22C64008312031388129F
:100950000130D4000030D500BA2C8530A800A80B97
:10096000AF2C013083120313D4070318D50A0030CB
:10097000D507BA2C6C08A03EA8006D080318013EEC
:10098000FE3EA900A809A909A80A0319A90A28086E
:10099000333EAA0029080318013E003EAB0055086B
:1009A0002B02031DD52C54082A020318D82CD92C4D
:1009B000AD2C08120630A800A80BDC2C64008312B2
:1009C000031308170130D6000030D700F42C85300F
:1009D000A800A80BE92C013083120313D6070318D3
:1009E000D70A0030D707F42C6E09A8006F09A900B8
:1009F000A80A0319A90A28083C3EAA0029080318D6
:100A0000013E013EAB00AA09AB09AA0A0319AB0AD1
:100A10002A08333EAC002B080318013E003EAD000F
:100A200057082D02031D162D56082C020318192DE8
:100A30001A2DE72C88170630A800A80B1D2D64007E
:100A40008312031308130130D8000030D900352D6C
:100A50008530A800A80B2A2D013083120313D80774
:100A60000318D90A0030D907352D6E09A8006F097F
:100A7000A900A80A0319A90A28083C3EAA002908C7
:100A80000318013E013EAB00AA09AB09AA0A0319EB
:100A9000AB0A2A08333EAC002B080318013E003E87
:100AA000AD0059082D02031D572D58082C020318BC
:100AB0005A2D5B2D282D88130630A800A80B5E2D1B
:100AC00064000A128A111D200A128A11672D013052
:100AD000831203136D02613003196C02031C712D24
:100AE000722DF62D01306F023C3003196E02031C8B
:100AF0007A2D7B2D6D2CF62DF62DF62D88170130D5
:100B0000DA000030DB00912D8530A800A80B862D7F
:100B1000013083120313DA070318DB0A0030DB0706
:100B2000912D6E089C3EA8006F080318013EFE3E02
:100B3000A900A809A909A80A0319A90A2808333E87
:100B4000AA0029080318013E003EAB005B082B02F7
:100B5000031DAC2D5A082A020318AF2DB02D842D89
:100B600008170630A800A80BB32D640083120313E6
:100B700088130130DC000030DD00CB2D8530A8006B
:100B8000A80BC02D013083120313DC070318DD0A04
:100B90000030DD07CB2D6E089C3EA8006F080318BF
:100BA000013EFE3EA900A809A909A80A0319A90A3D
:100BB0002808333EAA0029080318013E003EAB0076
:100BC0005D082B02031DE62D5C082A020318E92D9F
:100BD000EA2DBE2D08130630A800A80BED2D6400E9
:100BE0000A128A111D200A128A11F62D0130831271
:100BF00003136D02393003196C02031C002E012E01
:100C00009C2E01306D02603003196C020318092E0E
:100C10000A2E9C2E01306F02653003196E020318F4
:100C2000122E132E7E2D9C2E9C2E9C2E08170130EA
:100C3000DE000030DF00292E8530A800A80B1E2E14
:100C4000013083120313DE070318DF0A0030DF07C9
:100C5000292E6E09A8006F09A900A80A0319A90A7C
:100C600028083C3EAA0029080318013E013EAB00BB
:100C7000AA09AB09AA0A0319AB0A2A08333EAC0039
:100C80002B080318013E003EAD005F082D02031D36
:100C90004B2E5E082C0203184E2E4F2E1C2E88174A
:100CA0000630A800A80B522E640083120313081309
:100CB0000130E0000030E1006A2E8530A800A80B6A
:100CC0005F2E013083120313E0070318E10A00309E
:100CD000E1076A2E6E09A8006F09A900A80A031986
:100CE000A90A28083C3EAA0029080318013E013E33
:100CF000AB00AA09AB09AA0A0319AB0A2A08333EBA
:100D0000AC002B080318013E003EAD0061082D0227
:100D1000031D8C2E60082C0203188F2E902E5D2E42
:100D200088130630A800A80B932E64000A128A11BB
:100D30001D200A128A119C2E0130831203136D02AA
:100D4000393003196C02031CA62EA72E342F013054
:100D50006D02603003196C020318AF2EB02E342FD1
:100D600001306F023C3003196E02031CB82EB92EFD
:100D7000162E342F342F342F88160130E200003025
:100D8000E300CF2E8530A800A80BC42E01308312BB
:100D90000313E2070318E30A0030E307CF2E6C08C1
:100DA000A03EA8006D080318013EFE3EA900A80958
:100DB000A909A80A0319A90A2808333EAA00290884
:100DC0000318013E003EAB0063082B02031DEA2E10
:100DD00062082A020318ED2EEE2EC22E08160630E7
:100DE000A800A80BF12E64008312031388120130AF
:100DF000E4000030E500092F8530A800A80BFE2E86
:100E0000013083120313E4070318E50A0030E507F5
:100E1000092F6C08A03EA8006D080318013EFE3E95
:100E2000A900A809A909A80A0319A90A2808333E94
:100E3000AA0029080318013E003EAB0065082B02FA
:100E4000031D242F64082A020318272F282FFC2EA5
:100E500008120630A800A80B2B2F64000A128A1172
:100E60001D200A128A11342F0130831203136F02DE
:100E70003D3003196E02031C3E2F3F2FDA2F013045
:100E80006F02643003196E020318472F482FDA2FC0
:100E900001306D02613003196C020318502F512F7D
:100EA000BC2EDA2FDA2FDA2F08160130E6000030D8
:100EB000E700672F8530A800A80B5C2F0130831254
:100EC0000313E6070318E70A0030E707672F6C09EA
:100ED000A8006D09A900A80A0319A90A2808383E24
:100EE000AA0029080318013E013EAB00AA09AB097C
:100EF000AA0A0319AB0A2A08333EAC002B080318D0
:100F0000013E003EAD0067082D02031D892F6608D3
:100F10002C0203188C2F8D2F5A2F88160630A8000C
:100F2000A80B902F64008312031308120130E8000D
:100F30000030E900A82F8530A800A80B9D2F0130B4
:100F400083120313E8070318E90A0030E907A82F02
:100F50006C09A8006D09A900A80A0319A90A2808A4
:100F6000383EAA0029080318013E013EAB00AA0939
:100F7000AB09AA0A0319AB0A2A08333EAC002B08B6
:100F80000318013E003EAD0069082D02031DCA2F63
:100F900068082C020318CD2FCE2F9B2F8812063005
:100FA000A800A80BD12F64000A128A111D200A1272
:100FB0008A11DA2F0130831203136F023D300319B7
:100FC0006E02031CE42FE72F0A128A151A2F013034
:100FD0006F02643003196E020318EF2FF02FE42F15
:100FE00001306D02383003196C02031CF82FF92F01
:100FF000542FE42FE42FE42FE42F0A128A11122831
:1010000008308A000408840A82070034013400345E
:101010000A34003464340034E834033410342734A0
:101020002034253464342034543465346D347034C1
:1010300020343A3420342534643446342034203487
:101040002034203420340034203453346534743454
:10105000203462346534643420344E346F343A348E
:101060002534643420342034203400342034533484
:1010700065347434203462346534643420344E343E
:1010800075343A3425346434203420342034003428
:10109000203442346534643420346E347534203462
:1010A0006334683461346E346734653464342034B6
:0210B00000340A
:1017460008000134013401344030831203139F0032
:101756008430831603139F000800FF30831603139B
:1017660085008312031385018316031386018312F2
:101776000313860180308316031387008312031335
:1017860087010800803083160313870019309900FB
:1017960083120313981718131816831603131813B6
:1017A600981618121815193099008C160C12080084
:1017B600EC01ED01EE01EF018313A0308400E3306C
:1017C6000A128A1115200A128A15831603130A12A1
:1017D6008A15A4230A128A15E6000A128A15A52379
:1017E6000A128A15FC000A128A15A6230A128A15FD
:1017F600FD0083010A128A15F52E8316031333089A
:10180600F4007408E6006608F4007408F1005A084B
:101816000A128A152B240A128A15831603135A08EC
:10182600F4007408F100FF300A128A152B240A12FC
:101836008A150130F400740883160313DA075A0870
:10184600FF3A031D272C282C2A2CDA012A2C080003
:10185600F3002D2C831603178C18322C332C2D2CC9
:10186600342C7308831203178D0071088C003F30E7
:10187600F2007208831603178C05831203130310F4
:101886008B1F462C472C482C03148B1383160317E7
:101896000C1555308D00AA308D008C140C11831256
:1018A6000313031C572C582C5B2C8B175B2C5B2CBF
:1018B6000800720871040319612C622C982CF60139
:1018C6000314F60D722C01300310F10DF20DFF3EDC
:1018D600031D672C0130F5007508F607722CF21F00
:1018E600752C762C662C782C782C72087402031DC5
:1018F6007E2C71087302031C812C822C892C7108A2
:10190600F3027208031CF403F402892C013003105D
:10191600F20CF10CFF3E031D8A2C0130F602031D6A
:10192600952C962C782C982C982C7408F201F2079A
:101936007308F101F1079F2C080083120313A4001A
:101946002408A20002300310A20DFF3E031DA62CA0
:101956000310220DA3002308A4001F08C7399F0007
:101966001F0824049F001F141030A200A20BB92CDC
:101976006400831203131F15C02C1F19C32CC42C1B
:10198600C02CC52C1E08A200A3012208A50023080E
:10199600A6002508A300A2012208A5002308A60088
:1019A600831603131E08831203132507A5002608B2
:1019B6000318260AA6002608A101A1072508A001EA
:1019C600A007E52C0800831603136308831203138C
:1019D600A00004300310A00CFF3E031DED2C2008D0
:1019E600A100210883160313E4006308831203137E
:1019F600A00003300310A00DFF3E031DFD2C0310B5
:101A0600200DA100210883160313E5006508831243
:101A16000313A00004300310A00CFF3E031D0E2D7F
:101A26002008A100210883160313E500831203137F
:101A36000608F0398600831603136408831203131D
:101A460006048600861686120608F0398600831676
:101A5600031365088312031306048600861686128E
:101A6600080083120313A501A60121082004031907
:101A76003D2D3E2D7C2DA7010314A70D4E2D0130C3
:101A86000310A00DA10DFF3E031D432D0130A40040
:101A96002408A7074E2DA11F512D522D422D542D3E
:101AA600542D01300310A50DA60DFF3E031D552D27
:101AB60021082302031D612D20082202031C642D28
:101AC600652D6D2D2008A2022108031CA303A30285
:101AD60025146D2D01300310A10CA00CFF3E031D33
:101AE6006E2D0130A702031D792D7A2D542D7C2DE4
:101AF6007C2D2608A101A1072508A001A007832D9A
:101B060008000C1C872D882DF02D01308316031339
:101B1600C0070318C10A0030C1070A304006410455
:101B2600031D962D972DE82D0130C2070318C30A11
:101B36000030C307C001C1013C3042064304031D07
:101B4600A52DA62DE82D0130BE070318BF0A0030CB
:101B5600BF07C201C3011E30F1000030F2003F088A
:101B6600F401F4073E08F301F3070A128A155C2410
:101B76000A128A157108F700770883160313E00026
:101B8600E008031DC72DC82DD32D0A128A1500247F
:101B96000A128A150A128A15A3230A128A15D32D48
:101BA6003C30831603133E063F04031DDB2DDC2D5C
:101BB600E82DBE01BF010130BC070318BD0A003085
:101BC600BD07E82DE82DE82DE82D831203130C1030
:101BD600B0308E003C308F00F02D8C1EF32DF42D8E
:101BE600292E8C121A082A3A0319FA2DFB2D032ED8
:101BF6000930831603135C02031C022E032E072EE4
:101C060083160313DC01072E831203131A08F70049
:101C1600831603135C08AA3E8400770883138000AA
:101C26000130F7007708DC07831203131A08233AFA
:101C3600031D1E2E1F2E232E83160313DC01232EB7
:101C46000A128A15A3230A128A15292E7B088312E3
:101C56000313FF007A088A0079088400780E83004F
:101C6600FE0E7E0E09008312031306122830A20010
:101C7600220883160313E3000A128A15E6240A12C1
:101C86008A15343083120313A300F130A200A20B8D
:101C96004A2EA30B4A2E4F2E283083120313A2007E
:101CA600220883160313E3000A128A15E6240A1291
:101CB6008A15343083120313A300F130A200A20B5D
:101CC600622EA30B622E672E063083120313A20028
:101CD600220883160313E3000A128A15E6240A1261
:101CE6008A15343083120313A300F130A200A20B2D
:101CF6007A2EA30B7A2E7F2E063083120313A200B0
:101D0600220883160313E3000A128A15E6240A1230
:101D16008A15343083120313A300F130A200A20BFC
:101D2600922EA30B922E972E0D3083120313A20030
:101D3600220883160313E3000A128A15E6240A1200
:101D46008A15343083120313A300F130A200A20BCC
:101D5600AA2EA30BAA2EAF2E0D3083120313A200B8
:101D6600220883160313E3000A128A15E6240A12D0
:101D76008A15343083120313A300F130A200A20B9C
:101D8600C22EA30BC22EC72E183083120313A20035
:101D9600220883160313E3000A128A15E6240A12A0
:101DA6008A15343083120313A300F130A200A20B6C
:101DB600DA2EA30BDA2EDF2E83160313E3010314A8
:101DC600E30D0A128A15E6240A128A1534308312A4
:101DD6000313A300F130A200A20BEF2EA30BEF2EEC
:101DE600F42E08000A128A15C5230A128A150A1249
:101DF6008A15B0230A128A158316031388018312E3
:101E060003138801831603138901831203138901BF
:101E16000A128A15A7230A128A150A128A15362665
:101E26000A128A150A128A111D200A128A150A1226
:101E36008A111D200A128A150A128A11322A831261
:101E460003136E089C3EA8006F080318013EFE3E71
:101E5600A9006C09AA006D09AB00AA0A0319AB0A0E
:101E66002A08383EAC002B080318013E013EAD009F
:101E760029082D02031D412F28082C020318442F80
:101E8600472F0A128A11FC286C09A8006D09A900BF
:101E9600A80A0319A90A2808383EA0002908031829
:101EA600013E013EA1006E089C3EA2006F08031889
:101EB600013EFE3EA3000A128A1534250A128A152F
:101EC600831203132108EB01EB072008EA01EA0756
:101ED600AE01AF01EE2F88170130B0000030B1001F
:101EE600812F8530A800A80B762F013083120313AB
:101EF600B0070318B10A0030B107812F6E089C3E67
:101F0600A8006F080318013EFE3EA900A809A9090A
:101F1600A80A0319A90A2808333EAA0029080318A3
:101F2600013E003EAB0031082B02031D9C2F3008FA
:101F36002A0203189F2FA02F742F08170630A80017
:101F4600A80BA32F64008312031388130130B20079
:101F56000030B300BB2F8530A800A80BB02F01308E
:101F660083120313B2070318B30A0030B307BB2F5B
:101F76006E089C3EA8006F080318013EFE3EA900AD
:101F8600A809A909A80A0319A90A2808333EAA001C
:101F960029080318013E003EAB0033082B02031D3F
:101FA600D62F32082A020318D92FDA2FAE2F08139C
:101FB6000630A800A80BDD2F64000A128A111D2026
:101FC6000A128A15013083120313AE070318AF0AEB
:101FD6000030AF07EE2F6B082F02031DF42F6A089F
:101FE6002E02031CF72FF82F6E2F08160130B400AF
:0A1FF6000030B5000A128A118C2891
:00000001FF
